:020000040800F2
:10000000302C0020397C000811C8000815C80008F1
:1000100021C8000819C800081DC800080000000019
:100020000000000000000000000000004B7C000801
:100030004D7C0008000000007301000885030008E3
:100040003BCC000845CC00084FCC000859CC000838
:1000500063CC00086DCC000877CC000881CC000888
:100060008BCC000895CC00089FCC0008537C00087E
:10007000537C0008537C0008537C0008537C000824
:10008000537C0008537C0008EFCC0008537C000828
:10009000537C00080DCD000817CD000821CD0008C5
:1000A0002BCD000835CD00083FCD000849CD000814
:1000B00053CD00085DCD000867CD000871CD000864
:1000C0007BCD000885CD00088FCD000899CD0008B4
:1000D000A3CD0008ADCD0008B7CD0008C1CD000804
:1000E000CBCD0008D5CD0008DFCD0008537C00083B
:1000F000537C0008537C0008537C0008537C0008A4
:10010000537C0008537C0008E9CD0008F3CD0008BB
:10011000537C0008537C000811CE00081BCE000859
:10012000537C0008537C0008537C0008537C000873
:10013000EFF30980704780F309887047EFF3088078
:10014000704780F30888704740BA7047C0BA70475C
:1001500018484FF0FF010170002080F3098816480D
:10016000016881F3088815484FF08051016062B63C
:10017000FEE772B6EFF3098028B1203880E8F00F6F
:100180000F490968086000B50E4880475DF804EB28
:100190000D480E490A78027009480D490A68026044
:1001A000106890E8F00F203080F309884EF0040EBC
:1001B00062B6704722ED00E00000002004ED00E090
:1001C000B40000200103000852000020530000206A
:1001D000B800002010B58548006810B18348006859
:1001E000804710BD824800688249096800EB8100A1
:1001F000001F81490860704710B58048006810B141
:100200007E480068804710BD10B504467C480068F1
:1002100018B120467A490968884710BD10B50446D0
:100220007848006818B1204676490968884710BDAB
:1002300010B504467448006818B120467249096830
:10024000884710BDF0B50446DDE9055602EB850090
:100250004FF0807C071F3846C7F800C0071F38469C
:100260003C60DFF8A8C1071F3846C7F800C04FF050
:10027000123C071F3846C7F800C04FF0033C071F69
:100280003846C7F800C04FF0023C071F3846C7F891
:1002900000C0071F38463B60071F384639604FF0E3
:1002A000113C071F3846C7F800C04FF0103C071F2D
:1002B0003846C7F800C04FF0093C071F3846C7F85A
:1002C00000C04FF0083C071F3846C7F800C04FF089
:1002D000073C071F3846C7F800C04FF0063C071F11
:1002E0003846C7F800C04FF0053C071F3846C7F82E
:1002F00000C04FF0043C071F3846C7F800C0F0BDEF
:1003000070B54348006810B1414800688047002537
:100310004048006840490968884219D03D48006853
:10032000D0F89400281A3B490968C1F89000394870
:10033000006850F8983F406836490968D1F8901035
:10034000591840F10000334A126842F8981F506073
:1003500031480068C0F8945007F033FC04462D483B
:100360000068D0F8B800A04203D22A480068C0F85C
:10037000B84070BD10B52948006810B12748006822
:10038000804710BD10B5002400BF00BF06F0BCFEC2
:10039000044600BF07F013FB00BF21480078401C53
:1003A0001F49087000BF07F0EBFA00BF204606F0B7
:1003B000AFFE00BF00BF05F000FC00F080F910BDEB
:1003C00001464A1E4FF0E0235A61164A106820F099
:1003D0007F4000BF10601A46126942F005021A61A0
:1003E0001A46126942F002021A6170471400002096
:1003F000B8DE0008BCDE0008000000201800002065
:10040000080000200C00002010000020FD52000811
:100410001C000020B4000020B800002020000020B4
:100420002800002020ED00E011481248124813482F
:1004300013481448144815481548164816481748D4
:10044000174818481848194819481A481A481B48A4
:100450001B481C481C481D481D481E481E481F4874
:100460001F482048204821482148224800BF7047A3
:100470002CDF00088CDE000890DE000894DE000807
:1004800098DE0008B8DE0008BCDE0008C0DE000808
:10049000C4DE0008C8DE0008CCDE0008D0DE00089C
:1004A000D4DE0008D8DE0008DCDE0008E0DE00084C
:1004B000E4DE0008E8DE0008ECDE0008F0DE0008FC
:1004C000F4DE0008F8DE0008FCDE000800DF0008AB
:1004D00004DF000808DF00080CDF000810DF000858
:1004E00014DF000818DF00081CDF000820DF000808
:1004F00024DF000828DF0008002400BF1DE000BF43
:1005000000BF06F001FE044600BF07F058FA00BF26
:10051000FB480068401CFA490860FA480068401C23
:10052000F849086000BF07F02BFA00BF204606F02C
:10053000EFFD00BF00BFFFF74DFEE0E710B58AB04A
:1005400004460020EE490860032000210591CDE912
:10055000070406910846EC490968EC4A1268EC4B1E
:100560001B68CDE90132CDE903101F200023AFF253
:100570007702E8A10090EC4803F06DFE0AB010BDD0
:1005800000210AE001EB4102E84B03EB820000226C
:100590000281026042604A1CD1B22029F2D3704726
:1005A00070B50446FFF71EFE0020E1490870E149DE
:1005B0000870E1490870E1490870E14800680A21C3
:1005C000B0FBF1F0DF490860DF48006858B1DF4850
:1005D000056845B1DC48066803E0761E0020286007
:1005E0002D1D002EF9D10020D9490860D949086095
:1005F000D9490860D9490860D9490860D9490860D3
:10060000D949086002F012FCFFF7BAFF204604F057
:100610006CFE208800B170BD2046FFF78FFF208858
:1006200000B1F8E7204604F07BFF208800B1F2E734
:10063000204603F093FC208800B1ECE7204601F04F
:1006400056FC208800B1E6E7204601F05FFD2088D7
:1006500000B1E0E7204601F0A6FD208800B1DAE70E
:10066000204602F05CFA208800B1D4E7204602F070
:100670005FFF208800B1CEE7204603F0D2FA208841
:1006800000B1C8E7204605F015FE208800B1C2E79A
:1006900000F0E4FDFFF7C8FE00BFBCE7A548007806
:1006A000012800D07047A2480078FA2800DBF9E75B
:1006B0009F480078401C9E49087000BFF2E710B5C3
:1006C00000249C480078012800D010BD00BF06F02F
:1006D0001BFD044600BF9648007828B900BF20469D
:1006E00006F016FD00BFF0E791480078401E9049E3
:1006F000087008460078002805DD00BF204606F097
:1007000007FD00BFE1E78C480078002805DD00BF49
:10071000204606F0FDFC00BFD7E702F091FB9349AD
:1007200008700846007800EB4000804951F820002E
:100730008F490860084600688E490968884205D1DB
:1007400000BF204606F0E4FC00BFBEE78848006812
:10075000D0F88C00401C86490968C1F88C00864896
:100760000068401C844908604FF08050834908604D
:1007700000BF204606F0CCFC00BF00BFA5E710B5C7
:1007800000246B480078002800DD10BD6A4800781E
:10079000002800DDF9E700BF06F0B6FC044600BF04
:1007A00002F04EFB714908700846007800EB4000EB
:1007B0005E4951F820006E490860084600686D499E
:1007C0000968884205D100BF204606F0A1FC00BFA1
:1007D000DBE767480068D0F88C00401C6449096872
:1007E000C1F88C0064480068401C634908604FF001
:1007F00080506249086000BF204606F089FC00BFB7
:1008000000BFC2E770B504460025494800780028BB
:1008100003DD46F66250208070BD4648007801280E
:1008200003D045F689602080F6E743480078FA282F
:1008300003DB45F209202080EEE700BF00BF06F091
:1008400063FC054600BF07F0BAF800BF3A480078DD
:10085000401C3949087000BF07F092F800BF2846D5
:1008600006F056FC00BF00BF0020208000BFD3E789
:1008700070B5044600252E480078002803DD46F6B2
:100880006550208070BD2B480078012803D045F6C4
:1008900089602080F6E72848007818B946F6645049
:1008A0002080EFE700BF00BF06F02EFC054600BF2A
:1008B00007F085F800BF20480078401E1E490870E8
:1008C0000846007800280CDD00BF07F059F800BF8B
:1008D000284606F01DFC00BF00BF46F6635020808E
:1008E000D0E700BF07F04CF800BF284606F010FC28
:1008F00000BF00BFFFF743FF0020208000BFC1E71B
:10090000240000207000002094DE000890DE000823
:100910008CDE000875432F4F532D49494920496407
:100920006C65205461736B003812002000130020A6
:1009300028000020300000205E000020640000201D
:10094000ECDE000860000020BCDE0008B8DE000815
:10095000080000200C0000201000002014000020DF
:10096000180000201C000020200000205300002060
:10097000B8000020B40000208800002004ED00E052
:100980002DE9F04105460C461646002700BF00BF82
:1009900006F0BAFB074600BF07F011F800BF012DB3
:1009A00003D00020F749087002E00120F5490870E3
:1009B00014B1F548046006E0F44800680A21B0FB71
:1009C000F1F0F149086000BF06F0DAFF00BF3846D9
:1009D00006F09EFB00BF00BF00203080BDE8F08124
:1009E00010B501460C8924B1012C03D0022C0CD186
:1009F00001E000BF14E008684A6802610024C46096
:100A00001461D0600A6048600AE008684A68C368F8
:100A100000241C61C4600261D0600B60486000BFAC
:100A200000BF10BD2DE9F04104460027D8480078EA
:100A3000002804DD48F2D1402080BDE8F081D5488F
:100A40000078002803DD46F663502080F5E7CD48A6
:100A50000078012803D046F67B102080EDE700BF28
:100A600000BF06F051FB074600BF06F0A8FF00BF1D
:100A7000C948007800EB4000C84901EB8006308986
:100A800002280CDA00BF06F07BFF00BF384606F0F4
:100A90003FFB00BF00BF46F67A102080CDE730460E
:100AA000FFF79EFF3568686D18B9B7480068A865FC
:100AB00001E0686DA86500BF06F062FF00BF384620
:100AC00006F026FB00BF00BFFFF759FE0020208084
:100AD00000BFB2E710B50446B1480078E8B902F0AB
:100AE000AFF9B049087008460078AB490870AD48C6
:100AF000007800EB4000A94951F82000AA4908609D
:100B000008460068A94908600120A5490870FFF758
:100B10001FFB43F69920208002E045F68A60208082
:100B200010BD01460020088047F2F850704730B5EC
:100B300048B14568C1F8C45000F1080422689368C0
:100B40001D6AC56113E091F83450022D02D0072DC3
:100B500008D103E096A5C1F8C45007E096A5C1F8F6
:100B6000C45003E097A5C1F8C45000BF00BF30BD1A
:100B7000F0B58E6896F8375007893FB9012707818D
:100B800000274F600F600160416023E007897F1CF0
:100B90000781026806E0946894F83770AF4200DD80
:100BA00002E05268002AF6D100BF32B900274F6038
:100BB00043680B60596041600CE017682FB9116001
:100BC00000270F604A60016004E013680B604A6010
:100BD00059601160F0BD10B5C287016300230AE0BF
:100BE00000244C600C600C614C610C83CC6188600B
:100BF00020315C1CA3B29342F2DB10BD2DE9F04121
:100C0000054695F8370000EB4000644901EB80048D
:100C10002F69EE6887B946B90020208120606060A6
:100C200095F8370002F02EF90EE02089401E208151
:100C300000203061266007E02089401E2081FE6090
:100C40000EB9676000E0376100202861E860BDE808
:100C5000F08138B504460D4685B16B46022229461F
:100C6000204604F08CFCBDF8000018B9032084F87D
:100C7000360006E0022084F8360002E0022084F804
:100C800036002046FFF7BAFF38BD2DE9F041054692
:100C90000C4616461F464548006880F83460002020
:100CA0004249096881F83500394640480068FFF735
:100CB000D0FF6CB104F10808EC60012229463B48E2
:100CC0000068FFF788FF29464046FFF751FF06E01E
:100CD000002036490968C8873449096808633348E1
:100CE00001682046FFF723FFBDE8F08110B50489B5
:100CF000012C03D100240460446011E00C6824B985
:100D00004A680024146002600AE04C6824B90B6849
:100D100000245C60436003E00B684A685A6013601B
:100D20000489641E048100244C600C6010BD2DE910
:100D3000F0410446256BE68F0AE0D5F80C8008F1F7
:100D4000080729463846FFF7D1FF2035701E86B2C6
:100D5000002EF2DC0020E0872063BDE8F08130B592
:100D60000346086BCC8F08E0C5689D4202D1036141
:100D7000C26104E02030651EACB2002CF4DC00BF80
:100D800030BD00006400002060000020ECDE0008A0
:100D9000280000205E0000205200002000130020E8
:100DA0003000002053000020B8000020B4000020D4
:100DB0005461736B205100005461736B2053656D57
:100DC000000000002000000010B590F8373003EB61
:100DD0004303FA4C04EB83010B893BB901230B81DC
:100DE0000023C36003610860486009E00B895B1C55
:100DF0000B810B68C360002303610A6810610860FF
:100E000010BD10B590F8373003EB4303EB4C04EB07
:100E100083010B893BB901230B810023C36003616C
:100E20000860486008E00B895B1C0B810023C360ED
:100E30004A680261D060486010BD10B5044694F85D
:100E4000370002F00FF894F83700DD49097888423E
:100E500003D12046FFF7D5FF02E02046FFF7B4FF9D
:100E600010BD10B50446204604F062FA94F836002E
:100E700000F0040010B92046FFF7DFFF10BD70B589
:100E800005460C46164694F83600082847D2DFE897
:100E900000F0040508090607272800BF00BF00BFAF
:100EA0003EE000BF94F83400032804D132462146C6
:100EB0002846FFF754FF0020E065A4F86000266490
:100EC00015B12046FFF733FF2046FFF7CAFF002089
:100ED0003434A07001206070002004F834091FE051
:100EE00000BF94F83400032804D132462146284636
:100EF000FFF735FF0020E065A4F86000266415B117
:100F00002046FFF714FF204604F012FA0420343480
:100F1000A07001206070002004F8340900E000BFD8
:100F200000BF70BD30B5AFF26415C1F8C45000F118
:100F3000080422681AB193681D6AC56102E0AFF225
:100F40007C15C56130BD2DE9F04304460F4684F899
:100F50003770256BB4F83E8013E0D5F80C9009F19A
:100F600008063089012807D929463046FFF7BEFE1A
:100F700029463046FFF7FCFD2035A8F101001FFA95
:100F800080F8B8F1000FE8D1BDE8F08300210160DE
:100F900041600181704703895B1C038103684B60DA
:100FA00000230B60026802B1116001600389012B0C
:100FB00000D14160704730B50346086BCC8F08E024
:100FC000C5689D4202D10361C26104E02030651E04
:100FD000ACB2002CF4DC00BF30BD70B506460C4648
:100FE000154694F83600082845D2DFE800F00405DD
:100FF00008090607262700BF00BF00BF3CE000BF6E
:1010000094F83400032804D12A4621463046FFF7DD
:10101000D2FF0020E065A4F8600025642046FFF7B9
:1010200086FE2046FFF71DFF00203434A07002200A
:101030006070002004F834091EE000BF94F834000A
:10104000032804D12A4621463046FFF7B4FF00208A
:10105000E065A4F860002564204604F069F92046A4
:10106000FFF765FE04203434A07002206070002079
:1010700004F8340900E000BF00BF70BDF0B50446BD
:10108000059E086BCD8F0AE0C768A74204D10461B2
:1010900042610383C66104E020306F1EBDB2002DA3
:1010A000F2DC00BFF0BD2DE9F84306460C461746BA
:1010B0009846089D94F83600082850D2DFE800F0E2
:1010C0000405080906072B2C00BF00BF00BF47E03E
:1010D00000BF94F83400032807D143463A4621461E
:1010E00030460095FFF7CAFF03E0E765A4F860808B
:1010F000256436B12046FFF71AFE21463046FFF739
:1011000011FF2046FFF7ADFE00203434A070607060
:1011100004F8340924E000BF94F83400032807D110
:1011200043463A46214630460095FFF7A7FF03E0C5
:10113000E765A4F860802564204604F0F9F836B12C
:101140002046FFF7F4FD21463046FFF7EBFE042072
:101150003434A0700020607004F8340900E000BF4F
:1011600000BFBDE8F88370B5054600261548007835
:10117000012800D070BD00BF00BF05F0C5FF0646C6
:1011800000BF06F01CFC00BF2C684CB900BF06F085
:10119000F7FB00BF304605F0BBFF00BF00BFE9E72B
:1011A0000948844212D100BF06F0EAFB00BF304676
:1011B00005F0AEFF00BF00BFDCE700000013002019
:1011C000520000206400002038120020A06D10B1F1
:1011D000A06D401EA065A06D48B100BF06F0D0FB19
:1011E00000BF304605F094FF00BF00BFC2E728896A
:1011F000022809DA00BF06F0C3FB00BF304605F045
:1012000087FF00BF00BFB5E712480078002809DD5E
:1012100000BF06F0B5FB00BF304605F079FF00BF08
:1012200000BFA7E72846FFF7DBFB2C68606D18B905
:1012300009480068A06501E0606DA06500BF06F088
:101240009FFB00BF304605F063FF00BF00BF00BF3B
:1012500090E700005E000020600000202348244842
:10126000244825482548264826482748274828480E
:101270002848294829482A482A482B482B482C48DE
:101280002C482D482D482E482E482F482F483048AE
:10129000304831483148324832483348334834487E
:1012A000344835483548364836483748374838484E
:1012B0003848394839483A483A483B483B483C481E
:1012C0003C483D483D483E483E483F483F484048EE
:1012D00040484148414842484248434843484448BE
:1012E000444845484548464800BF704730DF00083D
:1012F00098E0000832DF000833DF000834DF000820
:1013000038DF00083CDF000839DF000864DF000830
:1013100065DF000866DF000868DF00086ADF000894
:101320006EDF000870DF000890DF000892DF000821
:1013300094DF000896DF000898DF00089ADF0008B5
:101340009CDF0008C8DF0008C9DF0008CADF00080A
:10135000CCDF0008CEDF0008CFDF0008D0DF0008B8
:10136000D2DF0008D4DF0008D6DF0008D8DF00088D
:10137000DADF0008DCDF00080CE000080DE0000800
:101380000EE000080FE0000810E0000812E000087E
:1013900014E000083CE000083DE000083EE00008E2
:1013A0003FE0000840E0000842E0000844E0000898
:1013B00048E0000849E000084AE000084BE0000867
:1013C0004CE000084DE000084EE000084FE0000847
:1013D00050E0000852E0000853E0000854E0000824
:1013E00056E0000858E0000859E000085CE00008FA
:1013F00090E0000891E0000892E0000894E0000806
:1014000096E00008F7A1C16100214161F649096831
:1014100011B90021816105E0F34909688161F24950
:1014200009684861F049086070472DE9F0410446B9
:101430000F4616461D464FF00008EC48007800287D
:1014400004DD42F6E1602880BDE8F0811CB945F674
:10145000C3502880F8E700BF00BF05F055FE804666
:1014600000BF06F0ACFA00BFE1482060676026626A
:101470000020606204F10800FFF788FD2046FFF7B6
:10148000C1FFDC480088401CDA49088000BF06F034
:1014900077FA00BF404605F03BFE00BF00BF0020CA
:1014A000288000BFD0E770B50446D3482060D3A0A1
:1014B00060600020206204F108052846FFF766FD01
:1014C00070BD426981693AB9C74B196009B10023FF
:1014D0004B610023836109E019B9002393614361E3
:1014E00004E091614A6100238361436170472DE903
:1014F000FC5F05468846144600200090BB480078F3
:10150000002805DD43F2C92020800020BDE8FC9FB3
:1015100025B945F6C35020800020F7E7B8F1000F49
:1015200003D0B8F1010F02D100E000BF04E045F69E
:10153000256020800020E9E700BFAD492868884287
:1015400004D045F6C45020800020DFE700BF00BF74
:1015500005F0DAFD009000BF06F031FA00BF05F19A
:101560000809B9F808603746B8F1000F03D0B8F1A0
:10157000010F4ED124E0B7B92846FFF7A2FF9D48DE
:101580000088401E9B4908802846FFF78CFF00BF5B
:1015900006F0F6F900BF009805F0BAFD00BF00BFE5
:1015A000002020800BE000BF06F0EAF900BF0098A1
:1015B00005F0AEFD00BF00BF47F25E10208035E0B1
:1015C000002001900AE0D9F800A0DAF808B05946E6
:1015D0002846019AFFF701FD701E86B2002EF2D157
:1015E0002846FFF76EFF83480088401E8149088027
:1015F0002846FFF758FF00BF06F0C2F900BF009869
:1016000005F086FD00BF00BFFFF7B9F8002020807D
:101610000CE000BF06F0B4F900BF009805F078FDBB
:1016200000BF00BF45F62560208000BF00BF3846E0
:101630006CE72DE9F04106460F4614461D46DDF8DD
:10164000188070480068C0F880406E480068A0F8B4
:10165000885000206B490968C1F884004346012284
:1016600039463046FFF711FBBDE8F0812DE9F04F18
:101670008BB00446884693469946DDE914750020F0
:1016800001905A480078002806DD46F2AE10288006
:1016900000200BB0BDE8F08F24B945F6C350288078
:1016A0000020F6E752492068884204D045F6C4502D
:1016B00028800020EDE709F4807010B14FF0010A96
:1016C00001E04FF0000A0FB10020386009F00F0070
:1016D0000A9000BF00BF05F017FD019000BF06F0A3
:1016E0006EF900BF0A98012878D0022877D0042824
:1016F00002D0082874D153E0206A00EA0806464563
:1017000019D1BAF1010F02D1206AB04320623D48DD
:101710000068C0F884600FB1606A386000BF06F0EE
:101720002FF900BF019805F0F3FC00BF00BF0020B7
:1017300028803046ADE709F4004068B100BF06F0EC
:101740001FF900BF019805F0E3FC00BF00BF46F29F
:10175000B010288000209CE72B48007800280DDD81
:1017600000BF06F00DF900BF019805F0D1FC00BFE5
:1017700000BF46F66350288000208AE74B46424669
:10178000214602A8CDF800B0FFF753FF00BF06F0D6
:10179000F7F800BF019805F0BBFC00BF00BF1FE1D8
:1017A000206A00EA0806E6B1BAF1010F02D1206A08
:1017B000B043206213480068C0F884600FB1606ACB
:1017C000386000BF06F0DCF800BF019805F0A0FC0F
:1017D00000BF00BF0020288030465AE74BE09EE063
:1017E000F0E013E02000000034000020280000207A
:1017F000464C4147380000204E4F4E453F464C4135
:1018000047000000B40000205E00002009F4004002
:1018100068B100BF06F0B4F800BF019805F078FC8D
:1018200000BF00BF46F2B0102880002031E7F84822
:10183000007800280DDD00BF06F0A2F800BF019877
:1018400005F066FC00BF00BF46F66350288000200C
:101850001FE74B464246214602A8CDF800B0FFF7ED
:10186000E8FE00BF06F08CF800BF019805F050FCC0
:1018700000BF00BFB4E0206A28EA0006464519D13F
:10188000BAF1010F02D1206A30432062E1480068BA
:10189000C0F884600FB1606A386000BF06F070F86D
:1018A00000BF019805F034FC00BF00BF0020288075
:1018B0003046EEE609F4004068B100BF06F060F87B
:1018C00000BF019805F024FC00BF00BF46F2B01035
:1018D00028800020DDE6CE48007800280DDD00BF1E
:1018E00006F04EF800BF019805F012FC00BF00BFE3
:1018F00046F6635028800020CBE64B464246214600
:1019000002A8CDF800B0FFF794FE00BF06F038F84B
:1019100000BF019805F0FCFB00BF00BF60E0206A3B
:1019200028EA0006CEB1BAF1010F02D1206A304395
:101930002062B8480068C0F884600FB1606A3860FF
:1019400000BF06F01DF800BF019805F0E1FB00BFE5
:1019500000BF0020288030469BE609F4004068B1B3
:1019600000BF06F00DF800BF019805F0D1FB00BFE5
:1019700000BF46F2B010288000208AE6A448007814
:1019800000280DDD00BF05F0FBFF00BF019805F04A
:10199000BFFB00BF00BF46F663502880002078E6FA
:1019A0004B464246214602A8CDF800B0FFF741FE63
:1019B00000BF05F0E5FF00BF019805F0A9FB00BFDF
:1019C00000BF0DE000BF05F0DBFF00BF019805F090
:1019D0009FFB00BF00BF45F625602880002058E629
:1019E00000BFFEF7CCFE00BF00BF05F08DFB0190ED
:1019F00000BF05F0E4FF00BF8648006890F835009E
:101A000030B101280CD002282ED003283FD11AE093
:101A10001FB180480068006C38600020288044E0D6
:101A20001FB17C480068006C386000BF05F0A8FF5B
:101A300000BF019805F06CFB00BF00BF46F2A91083
:101A40002880002025E60FB10020386000BF05F097
:101A500097FF00BF019805F05BFB00BF00BF47F296
:101A6000D9202880002014E61FB16A480068006C65
:101A7000386000BF05F084FF00BF019805F048FB07
:101A800000BF00BF45F6C2502880002001E600BF1D
:101A900005F076FF00BF019805F03AFB00BF00BFDC
:101AA00046F62B6028800020F3E500BF5948006807
:101AB000D0F88460BAF1010F22D10A9801280BD026
:101AC00002280AD0042802D008280AD100E000BF6A
:101AD000206AB043206212E000BF206A30432062D7
:101AE0000DE000BF05F04CFF00BF019805F010FBB2
:101AF00000BF00BF45F6256028800020C9E500BF73
:101B000000BF05F03DFF00BF019805F001FB00BFDD
:101B100000BF002028803046BBE52DE9F05F054678
:101B20000E4614464FF0000B3B480078002805DDB8
:101B300046F2AA1020800020BDE8F09F25B945F6A6
:101B4000C35020800020F7E74EB1B6F5807F07D064
:101B5000B6F5004F05D0B6F5014F04D102E000BF45
:101B600000BF00BF04E045F6256020800020E3E7C9
:101B700000BF2A492868884204D045F6C450208016
:101B80000020D9E700BF00BF05F0BEFA834600BFC2
:101B900005F015FF00BF05F10807388968B900BFD7
:101BA00005F0EEFE00BF584605F0B2FA00BF00BFD8
:101BB00046F2AB1020800020BEE74FF00008C2467E
:101BC0000FE03868D0F80890524649462846FFF79B
:101BD00056F908F101001FFA80F8B6F5807F00D0B1
:101BE00002E038890028ECDC00BF00BF05F0C8FE29
:101BF00000BF584605F08CFA00BF00BF06F4004055
:101C000008B9FEF7BCFD00202080404694E70000A4
:101C10005E000020B400002028000020464C414710
:101C200070B504460026B5480078002804DD46F269
:101C3000AE102080002070BD00BF00BF05F064FA28
:101C4000064600BF05F0BBFE00BFAD480068D0F8F7
:101C5000845000BF05F094FE00BF304605F058FAEE
:101C600000BF00BF002020802846E4E770B504468E
:101C70000E46154634342665002060702070E560FD
:101C8000A078343C082816D2DFE800F004050809E3
:101C90000706101100BF00BF00BF0DE000BF2046C7
:101CA000FFF7DFF8002084F8360005E000BF0420CD
:101CB00084F8360000E000BF00BF2046FFF737F889
:101CC00070BD2DE9F04F85B00446894692469B468B
:101CD000DDF838800020009000BF00BF05F014FA46
:101CE000009000BF05F06BFE00BFBAF1000F0AD0F4
:101CF000BAF1010F0DD0BAF5004F05D06FF40040D6
:101D0000504460B906E000BF206A40EA0900206242
:101D100016E000BF206A20EA0900206210E000BF40
:101D200005F02EFE00BF009805F0F2F900BF00BFDD
:101D300045F62560A8F80000002005B0BDE8F08F4A
:101D400000BFC4F824B004F1080001900198008994
:101D500068B900BF05F014FE00BF009805F0D8F97F
:101D600000BF00BF0020A8F80000206AE5E7019846
:101D70000768BD685BE07868029095F8880000F01D
:101D80000F0003900398012821D002282ED00428A8
:101D900002D0082836D10EE0206AD5F8801000EA7B
:101DA0000106D5F88000B04204D15A463146284693
:101DB000FFF75CFF35E0206AD5F8801000EA0106E5
:101DC00026B15A4631462846FFF750FF29E0D5F89C
:101DD0008000216A20EA0106D5F88000B04204D1D3
:101DE0005A4631462846FFF741FF1AE0D5F88000F1
:101DF000216A20EA010626B15A4631462846FFF7F5
:101E000035FF0EE000BF05F0BBFD00BF009805F0F8
:101E10007FF900BF00BF43F6FF20A8F800000020B4
:101E20008BE700BF029F0FB1BD6800E00025002DC9
:101E3000A1D100BF05F0A4FD00BF009805F068F92E
:101E400000BF00BF0AF4004008B9FEF798FC00BFCD
:101E500000BF05F059F9009000BF05F0B0FD00BFCC
:101E6000206A049000BF05F08BFD00BF009805F0CC
:101E70004FF900BF00BF0020A8F8000004985CE7FD
:101E80002DE9F8430546894616461C462DB945F608
:101E9000C35020800020BDE8F8834EB1012E08D049
:101EA000B6F5004F06D06FF40040304420B902E090
:101EB00000BF00BF00BF04E045F625602080002081
:101EC000E9E700BF0F492868884204D045F6C450AE
:101ED00020800020DFE74FF00008434632464946A5
:101EE00028460094FFF7EDFE07463846D3E7002169
:101EF000054A1160054A11800180704728000020C2
:101F0000B4000020464C4147340000203800002037
:101F1000002181618149096811B90021C16105E091
:101F20007E490968C1617D49096888617B4908600B
:101F300070472DE9FF4F83B0044615461F46DDE983
:101F400010960020009076480078002805DD45F2C4
:101F5000B960308007B0BDE8F08F1DB945F2BB60B5
:101F60003080F7E7022F03DA45F2BC603080F1E7FA
:101F7000B9F1040F03D245F2C1603080EAE74FF0B7
:101F8000030ABAF1000F0CD005EA0A0018B145F2B5
:101F9000BB603080DEE709EA0A0010B145F2C1609B
:101FA0003080AB46A846781E80B201900020029097
:101FB00007E0C844CBF80080C3460298401C80B2BA
:101FC0000290DDE901108842F3DB0020CBF800002D
:101FD00000BF00BF05F098F8009000BF05F0EFFCCF
:101FE00000BF504820600498A0606560E560A7824B
:101FF0006782A4F810902046FFF78AFF4A480088BD
:10200000401C4949088000BF05F0BAFC00BF009899
:1020100005F07EF800BF00BF0020308000BF99E7C8
:102020002DE9F04104460D4600272CB945F2BF606A
:1020300028800020BDE8F08100BF00BF05F064F8F3
:10204000074600BF05F0BBFC00BFA08A68B900BF0F
:1020500005F096FC00BF384605F05AF800BF00BFF7
:1020600045F2C26028800020E4E7E6683068E0605E
:10207000A08A401EA08200BF05F082FC00BF384647
:1020800005F046F800BF00BF002028803046D1E7A9
:102090002DE9F04104460E461546002724B945F2C5
:1020A000BF602880BDE8F0811EB945F2BE6028807F
:1020B000F8E700BF00BF05F027F8074600BF05F0AE
:1020C0007EFC00BFA08A618A88420CDB00BF05F05D
:1020D00057FC00BF384605F01BF800BF00BF45F2B3
:1020E000BA602880DEE7E0683060E660A08A401CC5
:1020F000A08200BF05F044FC00BF384605F008F898
:1021000000BF00BF0020288000BFCBE70021034AAA
:102110001160054A11800180704700003C000020DA
:10212000280000204D454D204000002070B502469B
:102130000B461046114610315E1EB5B2002408E071
:102140000160002646600681C66010301031661CB2
:10215000B4B2AC42F4DB0026066046600681C6607D
:1021600070BD70B504460E4615461CB945F21E708A
:10217000288070BD1EB945F21D702880F9E73146F0
:102180002046FFF7D3FF86480168701E04EB00105D
:102190000160834804608088304481498880002041
:1021A000288000BFE5E710B504467E48006818B9EE
:1021B00045F21E70208010BD7B48008818B945F29A
:1021C0001D702080F7E77848018876480068FFF79F
:1021D000ADFF7448006872490860734800888880C1
:1021E0000020C880208000BFE5E770B504460025C8
:1021F00000BF00BF04F088FF054600BF05F0DFFB0D
:1022000000BF0020A08100BF05F0BAFB00BF284638
:1022100004F07EFF00BF00BF70BD10B501464889C5
:102220004B89002B17DD0A685D4B1B6813605C4C03
:102230004B6823602346DB884C891B1B584CE3808A
:1022400023469B884C892344554CA38000234B8113
:102250008B810B604B6010BD018100224281828125
:10226000026042607047F0B504460D46608940B98F
:102270000020288002B1106046F2925018800020A1
:10228000F0BD61684E68088928800AB1C86810608E
:1022900008686060606818B900202060608102E012
:1022A0006089401E60813E48006808603C480160CB
:1022B0008088401C3A4FB8803846C088401EF8805D
:1022C000002018803046DBE72DE9F0410D46DDE9BE
:1022D0000674B0F80AC0B0F80880C44505DB46F2C1
:1022E000935CA4F800C0BDE8F081DFF8B4C0BCF88E
:1022F00004C0BCF1000F04D145F21D7CA4F800C05D
:10230000F1E7DFF89CC0DCF80010DFF89480D1F82A
:1023100000C0C8F800C0C446BCF804C0ACF1010C51
:10232000A8F804C0C446BCF806C00CF1010CA8F81B
:1023300006C0B0F80AC0BCF1000F06D101604160D0
:102340004FF0010CA0F80AC017E003F0100CBCF12C
:10235000000F07D1066831604FF0000CC1F800C0D3
:10236000016004E0D0F804C0C1F800C04160B0F8DA
:102370000AC00CF1010CA0F80AC0B0F80AC0B0F80D
:102380000C80C44503DDB0F80AC0A0F80CC04D6055
:102390000A81CF604FF0000CA4F800C000BFA2E794
:1023A00044000020CCDE0008C4DE0008FBA1C161AF
:1023B00000214161FA49096811B90021816105E0F4
:1023C000F74909688161F64909684861F44908607C
:1023D00070472DE9F04104460E4615460027F148A6
:1023E0000078002804DD42F6E1602880BDE8F08135
:1023F0001CB945F6C3502880F8E700BF00BF04F0C1
:1024000083FE074600BF05F0DAFA00BFE648206009
:1024100066600020206284F82500A062202084F8F5
:10242000240004F10800FEF7B1FD2046FFF7BEFFCF
:10243000DE480088401CDD49088000BF05F0A0FA96
:1024400000BF384604F064FE00BF00BF00202880B3
:1024500000BFCBE710B50446D5482060D5A060602A
:102460000020206284F82500A062202084F8240047
:1024700004F10800FEF78AFD10BD426981693AB98E
:10248000C74B196009B100234B610023836109E048
:1024900019B900239361436104E091614A6100230B
:1024A0008361436170472DE9FE4F04468A46154615
:1024B00000200090BB480078002805DD43F2C920C9
:1024C00028800020BDE8FE8F24B945F6C35028803F
:1024D0000020F7E7B4492068884204D045F6C4508C
:1024E00028800020EEE700BF00BF04F00DFE009042
:1024F00000BF05F064FA00BF04F10809B9F80870DC
:10250000B846BAF1000F03D0BAF1010F67D126E047
:10251000B8F1000F16D12046FFF7AFFFA34800889F
:10252000401EA24908802046FFF794FF00BF05F037
:1025300027FA00BF009804F0EBFD00BF00BF0020A9
:1025400028800BE000BF05F01BFA00BF009804F0E4
:10255000DFFD00BF00BF47F25E10288078E0266AEA
:10256000E6B396F8370094F82410884239D096F8EC
:102570003600082824D2DFE800F004131A1B1415D3
:102580001C1D3046FEF73AFB94F8240086F837000D
:1025900096F8370000F066FC3046FEF732FC1FE08C
:1025A00000BF00BF94F8240086F8370018E000BF91
:1025B00000BF00BF94F824103046FEF7C4FC0FE0C3
:1025C00000BF05F0DDF900BF009804F0A1FD00BFD9
:1025D00000BF46F62A602880002073E701E02AE069
:1025E00000BF002001900BE0D9F800B0DBF8080034
:1025F00002902046DDE90121FEF7EFFC781E87B24C
:10260000002FF1D12046FFF738FF68480088401EB0
:10261000664908802046FFF71DFF00BF05F0B0F9AE
:1026200000BF009804F074FD00BF00BFFEF7A7F8DC
:10263000002028800CE000BF05F0A2F900BF009840
:1026400004F066FD00BF00BF45F62560288000BF8E
:1026500000BF404636E72DE9F04788B00546894679
:1026600090461C46109E4FF0000A4E480078002805
:1026700005DD46F2AE10308008B0BDE8F0871DB928
:1026800045F6C3503080F7E7B8F1000F03D0B8F536
:10269000004F02D100E000BF03E045F62560308026
:1026A000EAE700BF40492868884203D045F6C45095
:1026B0003080E1E70CB10020206000BF00BF04F0D3
:1026C00023FD824600BF05F07AF900BF95F825008A
:1026D000D0B93A48006828623848006890F8370056
:1026E00085F82400012085F825000CB1A86A206037
:1026F00000BF05F045F900BF504604F009FD00BFDA
:1027000000BF00203080B7E72C49286A096888425A
:1027100014D195F82500401C85F825000CB1A86A55
:10272000206000BF05F02CF900BF504604F0F0FC1B
:1027300000BF00BF45F2827030809DE708F4004082
:1027400060B100BF05F01CF900BF504604F0E0FC8A
:1027500000BF00BF46F2B01030808DE71848007807
:1027600000280CDD00BF05F00BF900BF504604F057
:10277000CFFC00BF00BF46F6635030807CE72F6A75
:1027800097F837000D49096891F83710884252DDF3
:1027900097F83600082840D214E00000200000001E
:1027A0004C000020280000204D55545850000020B7
:1027B0004E4F4E453F4D555445580000B400002043
:1027C0005E000020DFE800F004151E1F1716202110
:1027D0003846FEF713FAD548006890F8370087F8B6
:1027E000370097F8370000F03DFB3846FEF7ECFA6B
:1027F00020E000BF00BFCD48006890F8370087F8A0
:10280000370017E000BF00BF00BFC848006890F85D
:1028100037103846FEF797FB0CE000BF05F0B0F824
:1028200000BF504604F074FC00BF00BF46F62A60AB
:10283000308021E700BF4B46042229466846FEF758
:1028400024FA00BF05F09CF800BF504604F060FC7D
:1028500000BF00BFFDF793FF00BF00BF04F054FCB2
:10286000824600BF05F0ABF800BFB048006890F8A2
:10287000350030B101280CD002281AD0032821D10C
:1028800010E01CB1A9480068006C20600020308076
:102890001CE01CB1A5480068006C206046F2A9103D
:1028A000308013E00CB10020206047F2D920308046
:1028B0000CE01CB19D480068006C206045F6C250D9
:1028C000308003E046F62B60308000BF00BF00BFC1
:1028D00005F056F800BF504604F01AFC00BF00BFD8
:1028E00000BFC9E62DE9F05F05460E4614464FF0DD
:1028F000000B8F480078002805DD46F2AA102080E2
:102900000020BDE8F09F25B945F6C3502080002087
:10291000F7E71EB1B6F5807F02D100E000BF04E00A
:1029200045F6256020800020EBE700BF814928683C
:10293000884204D045F6C45020800020E1E700BF63
:1029400000BF04F0E1FB834600BF05F038F800BF8C
:1029500005F10807388968B900BF05F011F800BF14
:10296000584604F0D5FB00BF00BF46F2AB102080F4
:102970000020C6E74FF00008C2460FE03868D0F8E4
:102980000890524649462846FEF779FA08F10100B8
:102990001FFA80F8B6F5807F00D002E03889002861
:1029A000ECDC00BF00BF04F0EBFF00BF584604F0B2
:1029B000AFFB00BF00BF06F4004008B9FDF7DFFE23
:1029C0000020208040469CE72DE9F84F04468946C8
:1029D00015464FF0000A56480078002804DD46F2FC
:1029E0000E202880BDE8F88F1CB945F6C35028801A
:1029F000F8E750492068884203D045F6C450288043
:102A0000F0E700BF00BF04F07FFB824600BF04F088
:102A1000D6FF00BF4549206A096888420CD000BF34
:102A200004F0AEFF00BF504604F072FB00BF00BFD1
:102A300045F281702880D5E74FF000082534C4F8AE
:102A400003802078401E207014F8250900280CDD32
:102A500000BF04F095FF00BF504604F059FB00BFD3
:102A600000BF45F283702880BCE704F1080738896D
:102A700078B90020206284F8250000BF04F080FFB0
:102A800000BF504604F044FB00BF00BF0020288078
:102A9000A8E72648006890F8370094F82410884288
:102AA00019D022480068FEF7A9F894F824001F49BD
:102AB000096881F837001D49096891F8370000F06E
:102AC000D1F91A480068FEF79CF91848006890F898
:102AD00037001949087038688668266296F837000A
:102AE00084F82400012084F8250000231A4631468A
:102AF0002046CDF80080FEF7D6FA00BF04F040FF74
:102B000000BF504604F004FB00BF00BF09F40040C2
:102B100008B9FDF734FE0020288000BF62E70021DD
:102B2000064A1160064A118001807047B4000020F7
:102B3000280000204D555458520000204C00002021
:102B4000500000202DE9F04704460D469046032032
:102B5000B149096881F834000020AF49096881F85B
:102B60003500AD480068C587AB480068046341463E
:102B7000A9480068FEF76DF84FF000091DE0A6486F
:102B80000068A060E768A5493868884205D107F168
:102B9000080A21465046FDF7EBFFE668A049306879
:102BA000884205D106F1080A21465046FDF7E0FFAC
:102BB000203409F101001FFA80F9A945DFDBBDE8E7
:102BC000F0872DE9FE4F044689460026B24638E0DC
:102BD0000020206160612083E06160602060A0606F
:102BE000D4F80C808E49D8F80000884214D102AB8A
:102BF0006A4601A908F12000FFF735FB0746BDF83A
:102C0000080048B9E06820616761BDF804002083CE
:102C10000098E061701C86B2E568804928688842A7
:102C20000AD1286A40B1286A401E2862E068206103
:102C3000686AE061701C86B220340AF101001FFA54
:102C400080FACA45C4DB3046BDE8FE8FF0B50246C7
:102C50000B46002418E0D06808B90020F0BD002120
:102C6000D6686E4F3068B84201D1481C81B2D56831
:102C70006B4F2868B84201D1481C81B209B90020C5
:102C8000ECE72032601C84B29C42E4DB0120E5E7E3
:102C90002DE9F05F8046894692461D460A9C4FF01A
:102CA000000B60480078002805DD46F2AE10208059
:102CB0000020BDE8F09FB8F1000F04D146F2D52006
:102CC00020800020F5E7B9F1000F04D146F2D520AD
:102CD00020800020EDE71DB1B5F5004F02D100E0E6
:102CE00000BF04E045F6256020800020E1E700BF3A
:102CF00049464046FFF7AAFF064626B945F6C450A6
:102D000020800020D5E700BF00BF04F0FDF9834616
:102D100000BF04F054FE00BF49464046FFF751FF94
:102D20000746002F0CDD00BF04F02AFE00BF584606
:102D300004F0EEF900BF00BF002020803846B8E75D
:102D400005F4004068B100BF04F01AFE00BF584609
:102D500004F0DEF900BF00BF46F2B0102080002072
:102D6000A7E73148007800280DDD00BF04F008FE19
:102D700000BF584604F0CCF900BF00BF46F66350D0
:102D80002080002095E7524649464046FFF7DAFE8C
:102D900000BF04F0F5FD00BF584604F0B9F900BFCC
:102DA00000BFFDF7ECFC00BF00BF04F0ADF98346A7
:102DB00000BF04F004FE00BF1748006890F835001B
:102DC00030B1012807D002280DD003280FD106E02A
:102DD000002020800FE046F2A91020800BE047F28F
:102DE000D920208007E045F6C250208003E046F657
:102DF0002B60208000BF00BF00200749096881F8D0
:102E0000350000BF04F0BCFD00BF584604F080F957
:102E100000BF00BF01204CE7B400002053454D41E6
:102E200051554555280000205E000020002004E098
:102E300000211C4A42F82010401C0028F8D070479E
:102E400070B50025174C03E005F12000C5B2241D24
:102E500020680028F8D0206804F05DF92844C5B245
:102E6000284670BD30B5420900F01F030121C3F1AF
:102E70001F04A1400B4C54F822400C43094D45F867
:102E8000224030BD30B5420900F01F030121C3F1DB
:102E90001F04A140034C54F822408C43014D45F8D7
:102EA000224030BD04000020F8A1C1610021416131
:102EB000F749096811B90021816105E0F449096801
:102EC0008161F34909684861F149086070472DE95B
:102ED000F04104460F4616461D464FF00008ED48E7
:102EE0000078002804DD42F6E1602880BDE8F0812A
:102EF0001CB945F6C3502880F8E71EB946F2945035
:102F00002880F3E700BF00BF04F0FEF8804600BF52
:102F100004F055FD00BFE04820606760314604F1D1
:102F20002000FFF799F904F10800FEF72FF820467A
:102F3000FFF7BAFFD9480088401CD849088000BF75
:102F400004F01EFD00BF404604F0E2F800BF00BFE1
:102F50000020288000BFC9E710B5044604F1200016
:102F6000FFF75BF9CE482060CEA06060002104F13D
:102F70002000FFF771F904F10800FEF707F810BD13
:102F8000426981693AB9C24B196009B100234B61AA
:102F90000023836109E019B900239361436104E0D0
:102FA00091614A6100238361436170472DE9FC5FB1
:102FB00005468946144600200090B648007800284F
:102FC00005DD43F2C92020800020BDE8FC9F25B923
:102FD00045F6C35020800020F7E7AF4928688842B3
:102FE00004D045F6C45020800020EEE700BF00BFAB
:102FF00004F08AF8009000BF04F0E1FC00BF05F186
:103000000808B8F808603746B9F1000F03D0B9F1E5
:10301000010F4ED124E0B7B92846FFF7B1FF9F4812
:103020000088401E9D4908802846FFF795FF00BF95
:1030300004F0A6FC00BF009804F06AF800BF00BFCF
:10304000002020800BE000BF04F09AFC00BF009835
:1030500004F05EF800BF00BF47F25E10208035E04C
:10306000002001900AE0D8F800A0DAF808B059462C
:103070002846019AFDF7B1FF701E86B2002EF2D1EC
:103080002846FFF77DFF85480088401E8349088059
:103090002846FFF761FF00BF04F072FC00BF0098F4
:1030A00004F036F800BF00BFFDF769FB0020208068
:1030B0000CE000BF04F064FC00BF009804F028F8A6
:1030C00000BF00BF45F62560208000BF00BF384626
:1030D0007BE72DE9F04105460C4600266D48007857
:1030E000002805DD4FF46C5020800020BDE8F08101
:1030F00025B945F6C35020800020F7E766492868C7
:10310000884204D045F6C45020800020EEE700BF7E
:1031100000BF03F0F9FF064600BF04F050FC00BFFB
:1031200005F12000FFF779F8074600BF04F028FCFE
:1031300000BF304603F0ECFF00BF00BF002020803E
:103140003846D3E72DE9F04F89B0074689469046C7
:103150001E46DDE912544FF0000B4E48007800285F
:1031600006DD46F2AE102080002009B0BDE8F08FE9
:1031700027B945F6C35020800020F6E726B946F26D
:10318000D52020800020F0E7B8F1000F03D0B8F57B
:10319000004F02D100E000BF04E045F6256020802A
:1031A0000020E2E700BF3C493868884204D045F679
:1031B000C45020800020D8E70DB10020286000BF57
:1031C00000BF03F0A1FF834600BF04F0F8FB00BF7F
:1031D00023462A46314607F12000FFF744F882468D
:1031E000208850B900BF04F0CBFB00BF584603F065
:1031F0008FFF00BF00BF5046B7E708F4004068B13A
:1032000000BF04F0BDFB00BF584603F081FF00BFC4
:1032100000BF46F2B01020800020A6E722480078C8
:1032200000280DDD00BF04F0ABFB00BF584603F0E3
:103230006FFF00BF00BF46F663502080002094E778
:103240004B460522394601A8FDF71FFD00BF04F0DB
:1032500097FB00BF584603F05BFF00BF00BFFDF7C0
:103260008EFA00BF00BF03F04FFF834600BF04F09B
:10327000A6FB00BF0D48006890F83500C0B10128DA
:1032800027D002283CD0032847D12FE0200000009F
:103290005800002028000020515545555C000020B2
:1032A0004E4F4E453F5100005E000020B40000200C
:1032B000A3480068D0F85CA0A1480068B0F860009E
:1032C00030801DB19E480068006C2860002020807E
:1032D0002BE04FF0000A002030801DB198480068B4
:1032E000006C286046F2A91020801EE04FF0000A12
:1032F0000020308005B1286047F2D920208014E0FA
:103300004FF0000A002030801DB18D480068006C2D
:10331000286045F6C250208007E04FF0000A0020E8
:10332000308046F62B60208000BF00BF00BF04F055
:1033300027FB00BF584603F0EBFE00BF00BF50461E
:1033400013E72DE9F05F05460E4614464FF0000BDB
:103350007C480078002805DD46F2AA102080002075
:10336000BDE8F09F25B945F6C35020800020F7E75F
:103370001EB1B6F5807F02D100E000BF04E045F643
:10338000256020800020EBE700BF6F492868884255
:1033900004D045F6C45020800020E1E700BF00BF04
:1033A00003F0B2FE834600BF04F009FB00BF05F145
:1033B0000807388968B900BF04F0E2FA00BF584630
:1033C00003F0A6FE00BF00BF46F2AB102080002035
:1033D000C6E74FF00008C2460FE03868D0F8089002
:1033E000524649462846FDF74AFD08F101001FFAFA
:1033F00080F8B6F5807F00D002E038890028ECDC48
:1034000000BF00BF04F0BCFA00BF584603F080FEC6
:1034100000BF00BF06F4004008B9FDF7B0F9002076
:10342000208040469CE72DE9F04F85B007468A464C
:1034300093461C460020029000BF00BF03F064FECC
:10344000029000BF04F0BBFA00BF07F10806308904
:10345000F0B904F0100010B94FF0000801E04FF08F
:103460001008DDE90E0143465A46CDE900015146F8
:1034700007F12000FEF728FF00BF04F081FA00BF2B
:10348000029803F045FE00BF00BF05B0BDE8F08F15
:1034900004F4007008B1358900E00125D6F80090E9
:1034A00011E0D9F808000390D9F8040004900E98B0
:1034B0005B465246009038460399FDF7F4FDDDF86F
:1034C0001090681E85B2002DEBD100BF04F058FAB1
:1034D00000BF029803F01CFE00BF00BF04F40040D0
:1034E00008B9FDF74CF900210F98018000BFCCE727
:1034F0002DE9FC4704460F46904699460A9D24B99B
:1035000045F6C3502880BDE8FC870F4920688842F3
:1035100003D045F6C4502880F5E700264B464246C6
:1035200039462046CDE90065FFF77DFF00BFEAE799
:103530000021064A1160064A118001807047000090
:10354000B4000020280000205155455558000020A7
:103550005C000020F9A1C16100214161F8490968BE
:1035600011B90021816105E0F54909688161F449DB
:1035700009684861F249086070472DE9F041044646
:103580000E4617461D464FF00008EE48007800280A
:1035900004DD42F6E1602880BDE8F0811CB945F603
:1035A000C3502880F8E700BF00BF03F0ADFD8046A0
:1035B00000BF04F004FA00BFE34820602762002047
:1035C0006062666004F10800FDF7E0FC2046FFF74A
:1035D000C1FFDE480088401CDC49088000BF04F0C1
:1035E000CFF900BF404603F093FD00BF00BF0020AD
:1035F000288000BFD0E710B50446D54820600020E1
:1036000020626062D3A0606004F10800FDF7BEFC98
:1036100010BD426981693AB9C94B196009B10023EB
:103620004B610023836109E019B900239361436171
:1036300004E091614A6100238361436170472DE991
:10364000FC5F05468946144600200090BD4800787E
:10365000002805DD43F2C92020800020BDE8FC9F42
:1036600025B945F6C35020800020F7E7B649286801
:10367000884204D045F6C45020800020EEE700BF09
:1036800000BF03F041FD009000BF04F098F900BFB7
:1036900005F10808B8F808603746B9F1000F03D003
:1036A000B9F1010F4ED124E0B7B92846FFF7B1FFB9
:1036B000A6480088401EA54908802846FFF79BFFC2
:1036C00000BF04F05DF900BF009803F021FD00BFCA
:1036D00000BF002020800BE000BF04F051F900BFC4
:1036E000009803F015FD00BF00BF47F25E10208078
:1036F00035E0002001900AE0D8F800A0DAF808B020
:1037000059462846019AFDF768FC701E86B2002EC5
:10371000F2D12846FFF77DFF8C480088401E8B4978
:1037200008802846FFF767FF00BF04F029F900BFB3
:10373000009803F0EDFC00BF00BFFDF720F800206B
:1037400020800CE000BF04F01BF900BF009803F0DC
:10375000DFFC00BF00BF45F62560208000BF00BF32
:1037600038467BE72DE9F04788B006468946904603
:103770001C46109D4FF0000A72480078002806DDB4
:1037800046F2AE102880002008B0BDE8F08726B9C8
:1037900045F6C35028800020F6E7B8F1000F03D0AB
:1037A000B8F5004F02D100E000BF04E045F6256007
:1037B00028800020E8E700BF63493068884204D0D1
:1037C00045F6C45028800020DEE70CB100202060C0
:1037D00000BF00BF03F098FC824600BF04F0EFF882
:1037E00000BF306A98B1306A401E30620CB1706A16
:1037F0002060376A00BF04F0C3F800BF504603F0F2
:1038000087FC00BF00BF002028803846BCE708F4D2
:10381000004070B1376A00BF04F0B2F800BF5046F4
:1038200003F076FC00BF00BF46F2B0102880384697
:10383000AAE74A48007800280DDD00BF04F0A0F890
:1038400000BF504603F064FC00BF00BF46F6635063
:103850002880002098E74B46062231466846FDF74F
:1038600014FA00BF04F08CF800BF504603F050FC7F
:1038700000BF00BFFCF783FF00BF00BF03F044FCA4
:10388000824600BF04F09BF800BF3548006890F8FE
:10389000350030B101280CD002281AD0032821D1DC
:1038A00010E01CB12E480068006C206000202880C9
:1038B00026E01CB12A480068006C206046F2A9107E
:1038C00028801DE00CB10020206047F2D92028801C
:1038D00016E01CB122480068006C206045F6C2501A
:1038E00028800DE046F62B60288000BF04F048F8E1
:1038F00000BF504603F00CFC00BF00BF002043E7B0
:1039000000BF376A00BF04F03BF800BF504603F029
:10391000FFFB00BF00BF384636E72DE9F05F0546E4
:103920000E4614464FF0000B06480078002819DDBB
:1039300046F2AA1020800020BDE8F09F2000000081
:10394000680000202800002053454D416C000020F5
:103950004E4F4E453F53454D000000005E00002095
:10396000B400002025B945F6C35020800020E3E7CD
:103970001EB1B6F5807F02D100E000BF04E045F63D
:10398000256020800020D7E700BFA9492868884229
:1039900004D045F6C45020800020CDE700BF00BF12
:1039A00003F0B2FB834600BF04F009F800BF05F145
:1039B0000807388968B900BF03F0E2FF00BF584626
:1039C00003F0A6FB00BF00BF46F2AB102080002032
:1039D000B2E74FF00008C2460FE03868D0F8089010
:1039E000524649462846FDF74AFA08F101001FFAF7
:1039F00080F8B6F5807F00D002E038890028ECDC42
:103A000000BF00BF03F0BCFF00BF584603F080FBBF
:103A100000BF00BF06F4004008B9FCF7B0FE00206C
:103A20002080404688E72DE9FF5F0446884691469E
:103A30001D460020019000BF00BF03F065FB019010
:103A400000BF03F0BCFF00BF04F10807388900285D
:103A500057D10420012804D0022816D004283AD1D6
:103A600027E0206AFF280FD100BF03F089FF00BFC5
:103A7000019803F04DFB00BF00BF46F6C5502880FB
:103A8000002004B0BDE8F09F26E04FF6FF71206AE9
:103A900088420DD100BF03F073FF00BF019803F00F
:103AA00037FB00BF00BF46F6C55028800020E8E77E
:103AB00012E0206A401C68B900BF03F061FF00BF3C
:103AC000019803F025FB00BF00BF46F6C5502880D3
:103AD0000020D6E700E000BF00BF206A401C206243
:103AE000D4F820A0C4F8249000BF03F049FF00BF21
:103AF000019803F00DFB00BF00BF00202880504656
:103B0000BFE708F4007008B13E8900E00126D7F84D
:103B100000B011E0DBF808000290DBF8040003902D
:103B200000231A46CDF8009020460299FDF7BBFA13
:103B3000DDF80CB0701E86B2002EEBD1D4F820A0B8
:103B400000BF03F01DFF00BF019803F0E1FA00BFC2
:103B500000BF08F4004008B9FCF711FE00202880DF
:103B600050468EE72DE9F04105460F4614462DB923
:103B700045F6C35020800020BDE8F0812C4928681C
:103B8000884204D045F6C45020800020F4E7002687
:103B90002346324639462846FFF745FF80464046D1
:103BA000EAE72DE9F04104460E4615464FF00008BD
:103BB00020480078002804DD46F6C6502880BDE87D
:103BC000F0811CB945F6C3502880F8E718492068F1
:103BD000884203D045F6C4502880F0E700202880B2
:103BE00000BF00BF03F090FA804600BF03F0E7FE7D
:103BF00000BF206A08B1266208E004F1080738898E
:103C000008B9266202E047F25E10288000BF03F088
:103C1000B7FE00BF404603F07BFA00BF00BF00BF05
:103C2000CDE70021044A1160044A118001807047E9
:103C300053454D4128000020680000206C00002002
:103C40002DE9F04107464FF000080020E6490860E2
:103C5000E6490860E6490860E6490860E648046805
:103C600024E000BF00BF03F04FFA804600BF03F01E
:103C7000A6FE00BF0020783420642060606360618D
:103C8000E074002121626162A062E062E061783C40
:103C900004F16406B081D4F8C04000BF03F070FEA8
:103CA00000BF404603F034FA00BF00BF002CD8D15B
:103CB00001F03CFD02F066FBD048056816E000BF4D
:103CC00000BF03F021FA804600BF03F078FE00BF7A
:103CD00005F120060020B081AD6900BF03F050FE61
:103CE00000BF404603F014FA00BF00BF002DE6D12C
:103CF00000203880BDE8F081F8B5044600266A4609
:103D00000021022001F03EFDBDF8000018B1BDF811
:103D100000002080F8BD00BF00BF03F0F5F90646A3
:103D200000BF03F04CFE00BF0020B549086000BF93
:103D300003F026FE00BF304603F0EAF900BF00BFE3
:103D40000025B0480068B0490968884205D9AD48E7
:103D50000068AD490968B0FBF1F525B9A9480068CC
:103D60000A21B0FBF1F56A460021284601F00AFD60
:103D700000BF00BF03F0C8F9064600BF03F01FFEF6
:103D800000BF0020984908609D4800689F4908606E
:103D900001209F49087000BF03F0F2FD00BF3046CC
:103DA00003F0B6F900BF00BF0020208000BFB1E7DC
:103DB0001CB50020009000BF06E093490968480048
:103DC00001AA002101F0DEFC914800780128F4D11D
:103DD00001A8FFF735FF00278A4800688A4909686B
:103DE000884205D98748006887490968B0FBF1F720
:103DF00027B9844800680A21B0FBF1F7ADE04FF025
:103E0000000A03F0F2FE7B49086000BF00BF03F028
:103E10007BF9009000BF03F0D2FD00BF7848006836
:103E20007C49086000207649086000BF03F0A8FDC7
:103E300000BF009803F06CF900BF00BF7348006832
:103E400074490968884213D97048006860B17148A4
:103E50000068642148436D490968B0FBF1F0C0F186
:103E600064006D49087006E064206B49087002E048
:103E7000642069490870FCF7BFF900252E465E48AA
:103E8000046821E000BF00BF03F03EF9009000BFCE
:103E900003F095FD00BF54F8980F6168C4E9020172
:103EA000002020606060983C00BF03F069FD00BF07
:103EB000009803F02DF900BF00BF54F8A01F606800
:103EC0004D194641206A0446002CDBD164220023B0
:103ED0002846314609F0C2FC05460E4646480468AD
:103EE00021E0002185EA0100714008430ED02A46F6
:103EF0003346D4E928B1584609F0B0FC00F0FF0978
:103F0000B9F1640F04D94FF0640901E04FF00009E2
:103F100084F88B9001AB04F1B002111D204601F032
:103F200097F8D4F8C040002CDBD13C480078012839
:103F300005D100203949087001A8FFF781FECAF1B8
:103F4000000829480068804502D92748C0F8008049
:103F500001AA0021384601F015FC50E710B58AB0DF
:103F600004460020264908602A490860274908605D
:103F700027490870294908702948006820B946F681
:103F80002C6020800AB010BD2648006826490968C8
:103F9000884203D246F62D602080F3E7234800785C
:103FA0001F2803D346F273202080EBE70320002173
:103FB0000591CDE90704069108461A4909681C4A8B
:103FC0001268174B1B68CDE90132CDE90310174881
:103FD00000780023AFF2272216A100901A4800F0C3
:103FE0003AF900BFCEE700008000002098000020D2
:103FF000A40000202C0000208C000020580000208D
:1040000070000020ECDE0008D4DE00087400002000
:104010007C000020780000206E000020840000203A
:10402000D8DE0008E0DE0008E8DE0008D0DE000888
:10403000DCDE000875432F4F532D49494920537446
:104040006174205461736B00801400202DE9F041ED
:1040500004460D4616464FF00008F948007800283F
:1040600004DD47F249103080BDE8F0811F2D03D3F5
:1040700046F273203080F7E7ACB900BF00BF03F011
:1040800043F8804600BF03F09AFC00BFED48046887
:1040900000BF03F075FC00BF404603F039F800BFD5
:1040A00000BF012700E0002700BF00BF03F02CF88D
:1040B000804600BF03F083FC00BF94F83600082858
:1040C0003AD2DFE800F004171C1D18191E1F204605
:1040D000FCF794FD84F8375094F83700FEF7C2FEE1
:1040E000012F03D12046FCF76FFE02E02046FCF7CB
:1040F00088FE2EE000BF00BF84F8375029E000BFE3
:1041000000BF00BF94F83400082812D2DFE800F0A6
:104110001106040A090B0C0500BF00BF84F83750D4
:1041200008E000BF00BF00BF29462046FCF70BFF98
:1041300000E000BF00BF0CE000BF03F021FC00BFA7
:10414000404602F0E5FF00BF00BF46F62A6030801F
:104150008AE700BF00BF03F013FC00BF404602F037
:10416000D7FF00BF00BFFCF70AFB0020308000BF74
:104170007AE70021C0F8BC10B349096819B90021D9
:10418000C0F8C01007E0B0490968C0F8C010AE49D7
:104190000968C1F8BC00AC490860704770B50446B6
:1041A00000202060A0606060E06020616061A0612C
:1041B000E061A6A0206200206062A062E06220634D
:1041C000E0872064E065A4F86000002104F1640049
:1041D000FEF742F8002044F8740F6060E060A082AF
:1041E0002061743C002506E0002104F17C0040F8C9
:1041F0002510681CC5B2002DF6D000203434206193
:104200006067A067606084F85600C4F88000E067CB
:1042100020814FF0004060610020A061E0612062D9
:10422000606284F85700A065E065002626660021DC
:104230006166A166C4F8840020706070A0702020C0
:10424000E0700020C4F88800C4F88C0081A0C4F895
:104250009000343C70BD2DE9FF4F85B00446904678
:10426000DDE91995159F139E00200290744800788F
:10427000002805DD47F24A10288009B0BDE8F08F1C
:104280001CB947F2AD102880F7E7B8F1000F03D151
:1042900047F24F102880F0E71EB946F62C602880C0
:1042A000EBE76D480068874203D246F62D60288010
:1042B000E3E71498B84203D346F62E602880DCE783
:1042C0001298202803D346F273202880D5E712984D
:1042D0001F2806D16148844203D046F2732028800B
:1042E000CBE72046FFF75AFF0020288009F00100A5
:1042F00088B109F0020070B1B3460020049007E0D5
:104300000020CBF800000BF1040B0498401C049033
:104310000498B842F4D3149806EB80000390CDE9DA
:10432000007932464046039B0899FBF78BFF834692
:10433000C4F828800898E06206982062129884F8F1
:104340003700C4F800B00398A0601798606517980C
:1043500018B943480068A06501E01798A06518984F
:1043600060606662A763A4F83C904FF0000A08E022
:10437000002104F17C0040F82A100AF101001FFA24
:1043800080FABAF1000FF3D004F164001699FDF73A
:1043900063FF2046FBF738FF00BF00BF02F0B4FE0A
:1043A000029000BF03F00BFB00BF94F83700FEF74C
:1043B00059FD2046FCF725FD2046FFF7DAFE294887
:1043C0000088401C2749088027480078012809D028
:1043D00000BF03F0D5FA00BF029802F099FE00BFBB
:1043E00000BF4AE700BF03F0CBFA00BF029802F01B
:1043F0008FFE00BF00BFFCF7C2F900BF3DE7D0F859
:10440000BC20D0F8C0104AB90F4B196011B100237D
:10441000C1F8BC300023C0F8C0300FE029B9002338
:10442000C2F8C030C0F8BC3008E0C2F8C010C1F813
:10443000BC200023C0F8C030C0F8BC30704700007A
:1044400028000020B40000208C0000203F5461733D
:104450006B00000020000000E8DE00083812002099
:1044600060000020900000203000002070B504465D
:104470000D460026FE480078002803DD47F24E1066
:10448000288070BDFB48844203D147F24C1028803D
:10449000F7E79CB900BF00BF02F036FE064600BF3A
:1044A00003F08DFA00BFF448046800BF03F068FA17
:1044B00000BF304602F02CFE00BF00BF00BF00BFAF
:1044C00002F022FE064600BF03F079FA00BF94F81E
:1044D000360008282DD2DFE800F004090E10080A83
:1044E0000F112046FCF78AFB30E02FE000BF20468A
:1044F00000F01EFF2AE000BF00BF00BF204600F012
:1045000017FF94F83400082810D2DFE800F0040701
:104510000508090A0B0600BF00BF08E000BF00BF86
:1045200000BF00BF2046FCF702FC00E000BF00BF58
:104530000CE000BF03F024FA00BF304602F0E8FDB3
:1045400000BF00BF46F62A6028809AE700BF04F14A
:104550006400FDF762FE2046FBF760FE2046FFF791
:104560004EFFC6480088401EC44908802046FFF719
:1045700015FEFF2084F8360000BF03F001FA00BFEB
:10458000304602F0C5FD00BF00BFFCF7F8F8002080
:10459000288000BF75E72DE9F04104460D4600264E
:1045A000B3480078002805DD4FF46C5028800020C7
:1045B000BDE8F0819CB900BF00BF02F0A5FD064632
:1045C00000BF03F0FCF900BFAB48046800BF03F074
:1045D000D7F900BF304602F09BFD00BF00BF00BF0F
:1045E00000BF02F091FD064600BF03F0E8F900BFEE
:1045F00004F16400FDF711FE074600BF03F0C0F9A7
:1046000000BF304602F084FD00BF00BF00202880BC
:104610003846CDE72DE9F05F80460F4616461C462A
:104620000A9D4FF0000B92480078002805DD46F205
:10463000AE1028800020BDE8F09F26B946F2D520B4
:1046400028800020F7E71FB1B7F5004F02D100E046
:1046500000BF04E045F6256028800020EBE700BF9E
:104660000CB10020206000BF00BF02F04DFD83466A
:1046700000BF03F0A4F900BF7F48006800F164099F
:104680002B46224631464846FDF7EDFD82462888F6
:10469000F0B994B120684042774909684867764884
:1046A0000068406F74490968896F884205D972486B
:1046B0000068406F70490968886700BF03F060F9BF
:1046C00000BF584602F024FD00BF00BF5046B2E7CD
:1046D00007F4004068B146F2B010288000BF03F034
:1046E0004FF900BF584602F013FD00BF00BF002085
:1046F000A1E76348007800280DDD00BF03F040F912
:1047000000BF584602F004FD00BF00BF46F66350EC
:10471000288000208FE74346022200210846FCF74C
:10472000B4FA00BF03F02CF900BF584602F0F0FCC9
:1047300000BF00BFFCF723F800BF00BF02F0E4FC9D
:10474000834600BF03F03BF900BF4B48006890F878
:10475000350020B1012828D0032830D130E0464868
:104760000068D0F85CA044480068B0F86000308071
:10477000C4B141480068006C20603F480068006C8C
:1047800040423D49096848673B480068406F3A49E4
:104790000968896F884205D937480068406F3649F3
:1047A000096888670020288017E04FF0000A002081
:1047B000308004B1206046F2A91028800DE000BFCF
:1047C0004FF0000A002030801CB12B480068006CBC
:1047D000206047F2D920288000BF00BF00BF03F04F
:1047E000CFF800BF584602F093FC00BF00BF504610
:1047F00021E72DE9F04104460E4615464FF000082A
:104800001B480078002805DD46F2AA102880002009
:10481000BDE8F08100BF00BF02F076FC804600BF1B
:1048200003F0CDF800BF1CB11348006884420DD1DD
:1048300000BF03F0A5F800BF404602F069FC00BFCE
:1048400000BF46F2AC1028800020E1E794F8340065
:10485000022817D000BF03F093F800BF404602F0D3
:1048600057FC00BF00BF46F2AB1028800020CFE706
:104870002800002038120020B40000209000002002
:104880005E00002000273A4621460020FCF7F7FA98
:1048900000BF03F075F800BF404602F039FC00BFCE
:1048A00000BF06F4004008B9FBF769FF002028802C
:1048B0000120ADE72DE9FC4704460F469046994696
:1048C000DDE90A654FF0000A00BF00BF02F01CFCE2
:1048D000824600BF03F073F800BF0CB9F8480468C3
:1048E0000020288094F8360008284BD2DFE800F03A
:1048F00004051A1B06071C1D00BF00BF00BF4B4666
:104900004246394604F16400CDE90065FDF7DCFC60
:1049100000BF03F035F800BF504602F0F9FB00BFBE
:1049200000BF3CE000BF00BF00BF94F83400022885
:1049300015D143463A46214600200096FCF7B3FBCA
:1049400000BF03F01DF800BF504602F0E1FB00BFBE
:1049500000BF09F40040A0B9FBF711FF11E04B467E
:104960004246394604F16400CDE90065FDF7ACFC30
:1049700000BF03F005F800BF504602F0C9FB00BFBE
:1049800000BF0CE000BF02F0FBFF00BF504602F08A
:10499000BFFB00BF00BF46F62A60288000BF00BFF3
:1049A000BDE8FC872DE9FC4704460D4616461F4628
:1049B000DDF828904FF000083B4632462946204655
:1049C000CDE90089FFF776FFBDE8FC872DE9F041CE
:1049D00004460D4616464FF000082DB146F67910F4
:1049E00030800020BDE8F08100BF00BF02F08CFBEA
:1049F000804600BF02F0E3FF00BF0CB9B048046876
:104A000004F17C0050F8257000BF02F0B9FF00BF30
:104A1000404602F07DFB00BF00BF002030803846DA
:104A2000E0E72DE9F04104460D4617461E464FF0DB
:104A3000000825B146F679103080BDE8F08100BF4E
:104A400000BF02F061FB804600BF02F0B8FF00BF6C
:104A50000CB99B48046804F17C0040F8257000BF45
:104A600002F08EFF00BF404602F052FB00BF00BFC5
:104A70000020308000BFE0E770B504460D460026F8
:104A800090480078002803DD47F25510288070BD5B
:104A900000BF00BF02F038FB064600BF02F08FFFE8
:104AA00000BF1CB18648006884420CD100BF02F0F0
:104AB00067FF00BF304602F02BFB00BF00BF47F28C
:104AC00057102880E3E70020288094F83600082853
:104AD00068D2DFE800F004050607142B3F5300BF3F
:104AE00000BF00BF00BF02F04BFF00BF304602F026
:104AF0000FFB00BF00BF47F2531028805FE014F89F
:104B00008A0F401E207014F88A0928B9002084F802
:104B100036002046FCF7A5F900BF02F031FF00BFC8
:104B2000304602F0F5FA00BF00BF48E014F88A0FE3
:104B3000401E207014F88A0910B9012084F836004C
:104B400000BF02F01DFF00BF304602F0E1FA00BFD7
:104B500000BF34E014F88A0F401E207014F88A0950
:104B600010B9022084F8360000BF02F009FF00BF30
:104B7000304602F0CDFA00BF00BF20E014F88A0FE3
:104B8000401E207014F88A0910B9032084F83600FA
:104B900000BF02F0F5FE00BF304602F0B9FA00BFD8
:104BA00000BF0CE000BF02F0EBFE00BF304602F099
:104BB000AFFA00BF00BF46F62A60288067E700BF53
:104BC000FBF7DDFD00BF62E72DE9F04707468846A9
:104BD00014461D464FF000093A480078002805DDCC
:104BE00046F2AE1028800020BDE8F0870CB100200E
:104BF000206000BF00BF02F087FA814600BF02F0CC
:104C0000DEFE00BF2E480068406CA8B32C48006848
:104C1000406C401E2A490968486429480068466C6F
:104C20001CB127480068006C206025480068006CB3
:104C3000404223490968C1F8A80021480068D0F81B
:104C4000A8001F490968D1F8AC10884207D91C4850
:104C50000068D0F8A8001A490968C1F8AC0000BF84
:104C600002F08EFE00BF484602F052FA00BF00BFBD
:104C7000002028803046B7E7FFE708F4004068B11D
:104C800000BF02F07DFE00BF484602F041FA00BFBF
:104C900000BF46F2B01028800020A5E70A4800783F
:104CA000002813DD00BF02F06BFE00BF484602F093
:104CB0002FFA00BF00BF46F663502880002093E71C
:104CC000B4000020280000205E0000203B460722A0
:104CD00000210846FBF7D9FF00BF02F051FE00BFDC
:104CE000484602F015FA00BF00BFFBF748FD00BFC1
:104CF00000BF02F009FA814600BF02F060FE00BF6B
:104D0000FA48006890F8350020B1012824D0032823
:104D100032D12AE0ECB1F5480068006C2060F3481D
:104D20000068006C4042F1490968C1F8A800EF48EA
:104D30000068D0F8A800ED490968D1F8AC108842A5
:104D400007D9EA480068D0F8A800E8490968C1F81E
:104D5000AC000020288013E01CB1E4480068006C1F
:104D6000206046F2A91028800AE00CB100202060E3
:104D700047F2D920288003E046F62B60288000BF48
:104D800000BFDA480068466C00BF02F0F9FD00BFC2
:104D9000484602F0BDF900BF00BF304624E72DE9C8
:104DA000F04104460E4615464FF00008D048007802
:104DB000002805DD46F2AA1028800020BDE8F08119
:104DC00000BF00BF02F0A0F9804600BF02F0F7FD6F
:104DD00000BF1CB1C548006884420DD100BF02F07D
:104DE000CFFD00BF404602F093F900BF00BF46F27E
:104DF000AC1028800020E1E794F8340007280DD09B
:104E000000BF02F0BDFD00BF404602F081F900BFC7
:104E100000BF46F2AB1028800020CFE700BF02F0B1
:104E2000AFFD00BF404602F073F900BF00BF00BFF6
:104E300000BF02F069F9804600BF02F0C0FD00BF6C
:104E400000273A4621460020FCF719F800BF02F07F
:104E500097FD00BF404602F05BF900BF00BF06F4BB
:104E6000004008B9FBF78BFC002028800120A5E753
:104E70002DE9F8430446884617461D464FF00009C1
:104E800000BF00BF02F040F9814600BF02F097FD6D
:104E900000BF0CB99548046827640020288094F866
:104EA0003600082877D2DFE800F0040558590607D5
:104EB0005A5B00BF00BF00BF0420012804D00228B5
:104EC00015D0042839D126E0606CFF280ED100BF30
:104ED00002F056FD00BF484602F01AF900BF00BFBD
:104EE00046F6C55028800020BDE8F88326E04FF63E
:104EF000FF71606C88420DD100BF02F041FD00BF20
:104F0000484602F005F900BF00BF46F6C5502880AC
:104F10000020E9E712E0606C401C68B900BF02F0B5
:104F20002FFD00BF484602F0F3F800BF00BF46F671
:104F3000C55028800020D7E700E000BF00BF606CAC
:104F4000401C6064666C00BF02F01AFD00BF48465A
:104F500002F0DEF800BF00BF3AE000BF00BF00BFB4
:104F600094F83400072817D100231A462146184622
:104F70000097FCF798F8666C00BF02F001FD00BFD7
:104F8000484602F0C5F800BF00BF08F4004080B9F1
:104F9000FBF7F5FB0DE00DE0606C401C6064666C97
:104FA00000BF02F0EDFC00BF484602F0B1F800BFC0
:104FB00000BF0DE000BF02F0E3FC00BF484602F076
:104FC000A7F800BF00BF46F62A602880002600BF71
:104FD00000BF304688E72DE9F04105460E461446ED
:104FE0004FF000082346424631462846FFF740FF6F
:104FF00007463846BDE8F0812DE9F04104460F46EA
:1050000015464FF000083A480078002805DD46F6BE
:10501000C65028800020BDE8F08100BF00BF02F02C
:1050200073F8804600BF02F0CAFC00BF0CB92F48DD
:105030000468666C676400BF02F0A2FC00BF4046D3
:1050400002F066F800BF00BF002028803046E2E78B
:105050002DE9F04705460E4617461C464FF0000A5C
:1050600023480078002804DD47F258102080BDE86E
:10507000F0871EB946F2D5202080F8E71FB946F226
:10508000D5202080F3E700BF00BF02F03DF8824644
:1050900000BF02F094FC00BF0DB9144805682868F1
:1050A00078B900BF02F06CFC00BF504602F030F847
:1050B00000BF00BF00203060386047F252102080EF
:1050C000D5E795F83C0000F0010098B900BF02F068
:1050D00057FC00BF504602F01BF800BF00BF002085
:1050E0003060386047F254102080C0E7B4000020E0
:1050F0002800002000BF02F043FC00BF504602F031
:1051000007F800BF00BF4FF00008D5F8249003E077
:1051100009F1040908F10108D9F800000028F7D0C6
:10512000C6F80080A86BA0EB080038600020208043
:1051300000BF9CE770B504460D4600267448007811
:10514000002803DD47F25C10288070BD714884425E
:1051500003D147F25A102880F7E700BF00BF01F0E3
:10516000D3FF064600BF02F02AFC00BF0CB96A4814
:10517000046869480068844210D1684800780028B3
:105180000CDD00BF02F0FCFB00BF304601F0C0FFA9
:1051900000BF00BF46F663502880D6E70020288075
:1051A00094F8360008285AD2DFE800F004172737B1
:1051B0004748494A042084F83600012084F88A00D0
:1051C0002046FBF71BFD00BF02F0DAFB00BF3046B4
:1051D00001F09EFF00BF00BF4EE0052084F83600BE
:1051E000012084F88A0000BF02F0CAFB00BF3046ED
:1051F00001F08EFF00BF00BF3EE0062084F83600BD
:10520000012084F88A0000BF02F0BAFB00BF3046DC
:1052100001F07EFF00BF00BF2EE0072084F83600BB
:10522000012084F88A0000BF02F0AAFB00BF3046CC
:1052300001F06EFF00BF00BF1EE000BF00BF00BF57
:1052400094F88A00401C84F88A0000BF02F098FBA2
:1052500000BF304601F05CFF00BF00BF0CE000BFA4
:1052600002F08EFB00BF304601F052FF00BF00BFCE
:1052700046F62A60288068E700BFFBF780FA00BF87
:1052800063E72DE9F04104460D4616460027204805
:105290000078002804DD46F6C6503080BDE8F08175
:1052A00000BF00BF01F030FF074600BF02F087FBE0
:1052B00000BF0CB9184804681DB91948006860653A
:1052C00000E06565D4E91501884201D9606DA065EB
:1052D00000BF02F055FB00BF384601F019FF00BFC8
:1052E00000BF0020308000BFD8E700210D4A1160C8
:1052F0000D4A11800D4A11600180704708B50648BB
:105300000068FAF795FF69460020FFF7AFF808BD7F
:105310002800002038120020B40000205E00002089
:10532000600000208C0000209000002088000020F9
:1053300010B5C269BAB1002404651468844205D16D
:105340004169116039B100248C6104E081694369CD
:105350004B6103B19961002444618461C461C464F8
:105360009488641E948010BD2DE9F05F4FF0000B0F
:1053700000BF00BF01F0C8FE834600BF02F01FFB64
:1053800000BF4FF0000AF0480068401CEE4908607A
:1053900008460068ED490988B0FBF1F201FB1200F4
:1053A0001FFA80F9EA4800EBC9073C6800267EE056
:1053B000002C7BD0D4F8148094F83600082871D2E1
:1053C000DFE800F00408051B063B074E00BF00BFE6
:1053D00000BF68E0DC49E06C0968401A2065DA49E2
:1053E000E06C0968884206D1002084F83600204627
:1053F000FBF737FD00E0012655E0D349E06C096872
:10540000401A2065D049E06C0968884213D1002019
:10541000E065A4F8600020642046FBF788FC204685
:10542000FBF71FFD00203434A070032060700020C3
:1054300004F8340900E0012635E0C349E06C09684E
:10544000401A2065C049E06C0968884206D10420F2
:1054500084F836002046FFF76BFF00E0012622E0CB
:10546000B949E06C0968401A2065B749E06C0968E1
:10547000884215D10020E065A4F860002064204631
:10548000FBF755FC2046FFF753FF04203434A0708F
:1054900003206070002004F8340902E006E001E017
:1054A000012600E000BF00BF444600E00126002EB8
:1054B0003FF47EAFCAF10005A6480068854201D9D5
:1054C000A448056000BF02F05BFA00BF584601F037
:1054D0001FFE00BF00BFBDE8F09F1CB500BF0EE07F
:1054E00001AB6A4600210846FFF76EFBBDF80400D9
:1054F00028B999480078012801D1FFF735FFEFE777
:10550000002108E0924A02EBC10000220260828082
:10551000C2804A1C91B28D4A12889142F2DB7047D8
:1055200010B58AB0044600208749086089490860A0
:10553000FFF7E6FF894800781F2804D346F273205E
:1055400020800AB010BD032000210591CDE9070499
:1055500006918348026883480068834B1B68CDE945
:105560000130CDE903217D4800780023AFF2950298
:105570007EA100908248FEF76EFE00BFE1E72DE9B4
:10558000F04F0C4616461D46042E1ED1DFF8B8918A
:10559000D9F80090A4EB0909A9F1010313F5803FA4
:1055A0000DD94FF00009C0F84C90C0F85090C0F8E9
:1055B0001C9047F27E29A5F80090BDE8F08FC464E6
:1055C00003F10109C0F850903FE084B3082E25D1C3
:1055D000D0F8489009EB0407DFF86C91D9F80090F7
:1055E000A7EB0909A9F10103A34201D2C76406E0B0
:1055F000DFF85491D9F80090A144C0F84C90DFF83E
:1056000048A1D0F84C90DAF800A0A9EB0A09C0F83C
:105610005090D0F84C90C0F8489016E0DFF82891F0
:10562000D9F80090A144C0F84C9004650DE0FFE764
:105630004FF00009C0F84C90C0F85090C0F81C9092
:1056400047F27E29A5F80090B7E7DFF800A1BAF885
:1056500000A0D0F84C90B9FBFAFB0AFB1B991FFA8B
:1056600089F8DFF8EC9009EBC802B2F80490B9F1C0
:10567000000F0BD14FF00009C0F81490C0F818903B
:1056800010604FF00109A2F804903EE0116834E088
:10569000DFF8B4A0D1F84C90DAF800A0A9EB0A0921
:1056A000C1F85090D0F85090D1F850A0D1450ED903
:1056B000D1F81490B9F1000F01D049691DE04FF005
:1056C0000009C0F8149081614861002115E0D1F80B
:1056D0001890B9F1000F07D14FF00009C0F81890E9
:1056E00041618861106007E0D1F818C0C0F818C0A7
:1056F0004161CCF81400886100210029C8D1B2F8BA
:10570000049009F10109A2F80490B2F80690B2F8E9
:1057100004A0D14503DAB2F80490A2F80690C26161
:105720004FF00009A5F8009000BF46E7002006E012
:10573000074A02EBC0010022CA80421C90B2034A11
:1057400012889042F4DB70479400002004DF0008C8
:10575000680F00209800002030000020F0DE0008D4
:10576000FCDE0008F8DE0008F4DE000875432F4F69
:10577000532D494949205469636B205461736B0070
:10578000481500202DE9F04105460E461446002735
:10579000F7480078002804DD47F275202080BDE836
:1057A000F081F4480078002803DD46F6635020803D
:1057B000F5E736B1022E05D0042E0AD0082E09D105
:1057C00001E000BF00BF1DB947F27E202080E6E760
:1057D00004E003E045F625602080E0E700BF00BF5D
:1057E00000BF01F091FC074600BF02F0E8F800BFDF
:1057F0000120E149096881F83600234632462946EE
:10580000DD480068FFF7BBFE208848B100BF02F00A
:10581000B7F800BF384601F07BFC00BF00BFBEE711
:10582000D5480068FBF7EAF900BF02F0A9F800BF0D
:10583000384601F06DFC00BF00BFFAF7A0FF002062
:10584000208000BFABE72DE9FF5F05460E461746F7
:105850009846DDE90EA400200090C5480078002895
:1058600004DD47F275202080BDE8FF9FC148007825
:10587000002803DD46F663502080F5E70AF00E0BA2
:10588000BBF1000F09D0BBF1020F07D0BBF1040F31
:1058900010D0BBF1080F0ED101E000BF00BFB8F17E
:1058A000000F06D12FB926B91DB947F27E202080FE
:1058B000DAE704E003E045F625602080D4E700BF86
:1058C0002AF01E0008B1012000E000200390039898
:1058D000012803D145F625602080C5E7CAF30010F2
:1058E00002900298C0B9B8F57A7F03D347F27B20C3
:1058F0002080B9E73B2F03DD47F27A202080B3E711
:105900003B2E03DD47F279202080ADE7632D12DDC9
:1059100047F278202080A7E742F20F70864203DD2D
:1059200047F2792020809FE7B5F57A7F03DB47F2C5
:105930007820208098E79148D0F800904FF4FA70D2
:10594000B0FBF9F0404400FB09F04FF47A71B0FB72
:10595000F1F14FF461606843C6EB061200EB820080
:10596000384400FB09100190019890B300BF00BFBC
:1059700001F0CAFB009000BF02F021F800BF012037
:105980007D49096881F8360023465A467A480199CC
:105990000068FFF7F4FD208848B100BF01F0F0FF78
:1059A00000BF009801F0B4FB00BF00BF5CE7724885
:1059B0000068FBF723F900BF01F0E2FF00BF009889
:1059C00001F0A6FB00BF00BFFAF7D9FE002020803F
:1059D00003E0FFE747F27E20208000BF44E770B578
:1059E00005460C46002662480078002803DD47F291
:1059F0007620208070BD1DB947F251102080F9E754
:105A000000BF00BF01F080FB064600BF01F0D7FFDA
:105A100000BF95F8360008287CD2DFE800F00411BA
:105A20002633404D606D00BF01F0AAFF00BF304635
:105A300001F06EFB00BF00BF47F25110208076E0FE
:105A4000002085F836002846FFF772FC2846FBF751
:105A5000F4F900BF01F094FF00BF304601F058FB9D
:105A600000BF00BF0020208061E000BF01F088FF80
:105A700000BF304601F04CFB00BF00BF47F25110A1
:105A8000208054E000BF01F07BFF00BF304601F0F2
:105A90003FFB00BF00BF47F25110208047E000BF2E
:105AA00001F06EFF00BF304601F032FB00BF00BFC7
:105AB00047F2511020803AE0042085F8360028464D
:105AC000FFF736FC00BF01F05BFF00BF304601F07E
:105AD0001FFB00BF00BF47F25910208027E000BF26
